{
    "_format": "hh-sol-artifact-1",
    "contractName": "Domains",
    "sourceName": "contracts/Domains.sol",
    "abi": [
        {
            "inputs": [
                {
                    "internalType": "string",
                    "name": "_tld",
                    "type": "string"
                }
            ],
            "stateMutability": "payable",
            "type": "constructor"
        },
        {
            "inputs": [],
            "name": "AlreadyRegistered",
            "type": "error"
        },
        {
            "inputs": [
                {
                    "internalType": "string",
                    "name": "name",
                    "type": "string"
                }
            ],
            "name": "InvalidName",
            "type": "error"
        },
        {
            "inputs": [],
            "name": "Unauthorised",
            "type": "error"
        },
        {
            "anonymous": false,
            "inputs": [
                {
                    "indexed": true,
                    "internalType": "address",
                    "name": "owner",
                    "type": "address"
                },
                {
                    "indexed": true,
                    "internalType": "address",
                    "name": "approved",
                    "type": "address"
                },
                {
                    "indexed": true,
                    "internalType": "uint256",
                    "name": "tokenId",
                    "type": "uint256"
                }
            ],
            "name": "Approval",
            "type": "event"
        },
        {
            "anonymous": false,
            "inputs": [
                {
                    "indexed": true,
                    "internalType": "address",
                    "name": "owner",
                    "type": "address"
                },
                {
                    "indexed": true,
                    "internalType": "address",
                    "name": "operator",
                    "type": "address"
                },
                {
                    "indexed": false,
                    "internalType": "bool",
                    "name": "approved",
                    "type": "bool"
                }
            ],
            "name": "ApprovalForAll",
            "type": "event"
        },
        {
            "anonymous": false,
            "inputs": [
                {
                    "indexed": true,
                    "internalType": "address",
                    "name": "from",
                    "type": "address"
                },
                {
                    "indexed": true,
                    "internalType": "address",
                    "name": "to",
                    "type": "address"
                },
                {
                    "indexed": true,
                    "internalType": "uint256",
                    "name": "tokenId",
                    "type": "uint256"
                }
            ],
            "name": "Transfer",
            "type": "event"
        },
        {
            "inputs": [
                {
                    "internalType": "address",
                    "name": "to",
                    "type": "address"
                },
                {
                    "internalType": "uint256",
                    "name": "tokenId",
                    "type": "uint256"
                }
            ],
            "name": "approve",
            "outputs": [],
            "stateMutability": "nonpayable",
            "type": "function"
        },
        {
            "inputs": [
                {
                    "internalType": "address",
                    "name": "owner",
                    "type": "address"
                }
            ],
            "name": "balanceOf",
            "outputs": [
                {
                    "internalType": "uint256",
                    "name": "",
                    "type": "uint256"
                }
            ],
            "stateMutability": "view",
            "type": "function"
        },
        {
            "inputs": [
                {
                    "internalType": "string",
                    "name": "",
                    "type": "string"
                }
            ],
            "name": "domains",
            "outputs": [
                {
                    "internalType": "address",
                    "name": "",
                    "type": "address"
                }
            ],
            "stateMutability": "view",
            "type": "function"
        },
        {
            "inputs": [
                {
                    "internalType": "string",
                    "name": "name",
                    "type": "string"
                }
            ],
            "name": "getAddress",
            "outputs": [
                {
                    "internalType": "address",
                    "name": "",
                    "type": "address"
                }
            ],
            "stateMutability": "view",
            "type": "function"
        },
        {
            "inputs": [],
            "name": "getAllNames",
            "outputs": [
                {
                    "internalType": "string[]",
                    "name": "",
                    "type": "string[]"
                }
            ],
            "stateMutability": "view",
            "type": "function"
        },
        {
            "inputs": [
                {
                    "internalType": "uint256",
                    "name": "tokenId",
                    "type": "uint256"
                }
            ],
            "name": "getApproved",
            "outputs": [
                {
                    "internalType": "address",
                    "name": "",
                    "type": "address"
                }
            ],
            "stateMutability": "view",
            "type": "function"
        },
        {
            "inputs": [
                {
                    "internalType": "string",
                    "name": "name",
                    "type": "string"
                }
            ],
            "name": "getRecord",
            "outputs": [
                {
                    "internalType": "string",
                    "name": "",
                    "type": "string"
                }
            ],
            "stateMutability": "view",
            "type": "function"
        },
        {
            "inputs": [
                {
                    "internalType": "address",
                    "name": "owner",
                    "type": "address"
                },
                {
                    "internalType": "address",
                    "name": "operator",
                    "type": "address"
                }
            ],
            "name": "isApprovedForAll",
            "outputs": [
                {
                    "internalType": "bool",
                    "name": "",
                    "type": "bool"
                }
            ],
            "stateMutability": "view",
            "type": "function"
        },
        {
            "inputs": [],
            "name": "isOwner",
            "outputs": [
                {
                    "internalType": "bool",
                    "name": "",
                    "type": "bool"
                }
            ],
            "stateMutability": "view",
            "type": "function"
        },
        {
            "inputs": [],
            "name": "name",
            "outputs": [
                {
                    "internalType": "string",
                    "name": "",
                    "type": "string"
                }
            ],
            "stateMutability": "view",
            "type": "function"
        },
        {
            "inputs": [
                {
                    "internalType": "uint256",
                    "name": "",
                    "type": "uint256"
                }
            ],
            "name": "names",
            "outputs": [
                {
                    "internalType": "string",
                    "name": "",
                    "type": "string"
                }
            ],
            "stateMutability": "view",
            "type": "function"
        },
        {
            "inputs": [],
            "name": "owner",
            "outputs": [
                {
                    "internalType": "address payable",
                    "name": "",
                    "type": "address"
                }
            ],
            "stateMutability": "view",
            "type": "function"
        },
        {
            "inputs": [
                {
                    "internalType": "uint256",
                    "name": "tokenId",
                    "type": "uint256"
                }
            ],
            "name": "ownerOf",
            "outputs": [
                {
                    "internalType": "address",
                    "name": "",
                    "type": "address"
                }
            ],
            "stateMutability": "view",
            "type": "function"
        },
        {
            "inputs": [
                {
                    "internalType": "string",
                    "name": "name",
                    "type": "string"
                }
            ],
            "name": "price",
            "outputs": [
                {
                    "internalType": "uint256",
                    "name": "",
                    "type": "uint256"
                }
            ],
            "stateMutability": "pure",
            "type": "function"
        },
        {
            "inputs": [
                {
                    "internalType": "string",
                    "name": "",
                    "type": "string"
                }
            ],
            "name": "records",
            "outputs": [
                {
                    "internalType": "string",
                    "name": "",
                    "type": "string"
                }
            ],
            "stateMutability": "view",
            "type": "function"
        },
        {
            "inputs": [
                {
                    "internalType": "string",
                    "name": "name",
                    "type": "string"
                }
            ],
            "name": "register",
            "outputs": [],
            "stateMutability": "payable",
            "type": "function"
        },
        {
            "inputs": [
                {
                    "internalType": "address",
                    "name": "from",
                    "type": "address"
                },
                {
                    "internalType": "address",
                    "name": "to",
                    "type": "address"
                },
                {
                    "internalType": "uint256",
                    "name": "tokenId",
                    "type": "uint256"
                }
            ],
            "name": "safeTransferFrom",
            "outputs": [],
            "stateMutability": "nonpayable",
            "type": "function"
        },
        {
            "inputs": [
                {
                    "internalType": "address",
                    "name": "from",
                    "type": "address"
                },
                {
                    "internalType": "address",
                    "name": "to",
                    "type": "address"
                },
                {
                    "internalType": "uint256",
                    "name": "tokenId",
                    "type": "uint256"
                },
                {
                    "internalType": "bytes",
                    "name": "data",
                    "type": "bytes"
                }
            ],
            "name": "safeTransferFrom",
            "outputs": [],
            "stateMutability": "nonpayable",
            "type": "function"
        },
        {
            "inputs": [
                {
                    "internalType": "address",
                    "name": "operator",
                    "type": "address"
                },
                {
                    "internalType": "bool",
                    "name": "approved",
                    "type": "bool"
                }
            ],
            "name": "setApprovalForAll",
            "outputs": [],
            "stateMutability": "nonpayable",
            "type": "function"
        },
        {
            "inputs": [
                {
                    "internalType": "string",
                    "name": "name",
                    "type": "string"
                },
                {
                    "internalType": "string",
                    "name": "record",
                    "type": "string"
                }
            ],
            "name": "setRecord",
            "outputs": [],
            "stateMutability": "nonpayable",
            "type": "function"
        },
        {
            "inputs": [
                {
                    "internalType": "bytes4",
                    "name": "interfaceId",
                    "type": "bytes4"
                }
            ],
            "name": "supportsInterface",
            "outputs": [
                {
                    "internalType": "bool",
                    "name": "",
                    "type": "bool"
                }
            ],
            "stateMutability": "view",
            "type": "function"
        },
        {
            "inputs": [],
            "name": "symbol",
            "outputs": [
                {
                    "internalType": "string",
                    "name": "",
                    "type": "string"
                }
            ],
            "stateMutability": "view",
            "type": "function"
        },
        {
            "inputs": [],
            "name": "tld",
            "outputs": [
                {
                    "internalType": "string",
                    "name": "",
                    "type": "string"
                }
            ],
            "stateMutability": "view",
            "type": "function"
        },
        {
            "inputs": [
                {
                    "internalType": "uint256",
                    "name": "tokenId",
                    "type": "uint256"
                }
            ],
            "name": "tokenURI",
            "outputs": [
                {
                    "internalType": "string",
                    "name": "",
                    "type": "string"
                }
            ],
            "stateMutability": "view",
            "type": "function"
        },
        {
            "inputs": [
                {
                    "internalType": "address",
                    "name": "from",
                    "type": "address"
                },
                {
                    "internalType": "address",
                    "name": "to",
                    "type": "address"
                },
                {
                    "internalType": "uint256",
                    "name": "tokenId",
                    "type": "uint256"
                }
            ],
            "name": "transferFrom",
            "outputs": [],
            "stateMutability": "nonpayable",
            "type": "function"
        },
        {
            "inputs": [
                {
                    "internalType": "string",
                    "name": "name",
                    "type": "string"
                }
            ],
            "name": "valid",
            "outputs": [
                {
                    "internalType": "bool",
                    "name": "",
                    "type": "bool"
                }
            ],
            "stateMutability": "pure",
            "type": "function"
        },
        {
            "inputs": [],
            "name": "withdraw",
            "outputs": [],
            "stateMutability": "nonpayable",
            "type": "function"
        }
    ],
    "bytecode": "0x6080604052604051806108a0016040528061086b81526020016200520861086b913960099080519060200190620000389291906200035a565b506040518060400160405280600d81526020017f3c2f746578743e3c2f7376673e00000000000000000000000000000000000000815250600a9080519060200190620000869291906200035a565b5060405162005a7338038062005a738339818101604052810190620000ac9190620005a7565b6040518060400160405280601181526020017f56696265204e616d6520536572766963650000000000000000000000000000008152506040518060400160405280600381526020017f564e4d00000000000000000000000000000000000000000000000000000000008152508160009080519060200190620001309291906200035a565b508060019080519060200190620001499291906200035a565b50505033600e60006101000a81548173ffffffffffffffffffffffffffffffffffffffff021916908373ffffffffffffffffffffffffffffffffffffffff1602179055508060089080519060200190620001a59291906200035a565b50620002846040518060400160405280601881526020017f2573206e616d652073657276696365206465706c6f796564000000000000000081525060088054620001ef9062000627565b80601f01602080910402602001604051908101604052809291908181526020018280546200021d9062000627565b80156200026e5780601f1062000242576101008083540402835291602001916200026e565b820191906000526020600020905b8154815290600101906020018083116200025057829003601f168201915b50505050506200028b60201b62001b911760201c565b50620006f5565b6200032d8282604051602401620002a4929190620006ba565b6040516020818303038152906040527f4b5c4277000000000000000000000000000000000000000000000000000000007bffffffffffffffffffffffffffffffffffffffffffffffffffffffff19166020820180517bffffffffffffffffffffffffffffffffffffffffffffffffffffffff83818316178352505050506200033160201b60201c565b5050565b60008151905060006a636f6e736f6c652e6c6f679050602083016000808483855afa5050505050565b828054620003689062000627565b90600052602060002090601f0160209004810192826200038c5760008555620003d8565b82601f10620003a757805160ff1916838001178555620003d8565b82800160010185558215620003d8579182015b82811115620003d7578251825591602001919060010190620003ba565b5b509050620003e79190620003eb565b5090565b5b8082111562000406576000816000905550600101620003ec565b5090565b6000604051905090565b600080fd5b600080fd5b600080fd5b600080fd5b6000601f19601f8301169050919050565b7f4e487b7100000000000000000000000000000000000000000000000000000000600052604160045260246000fd5b620004738262000428565b810181811067ffffffffffffffff8211171562000495576200049462000439565b5b80604052505050565b6000620004aa6200040a565b9050620004b8828262000468565b919050565b600067ffffffffffffffff821115620004db57620004da62000439565b5b620004e68262000428565b9050602081019050919050565b60005b8381101562000513578082015181840152602081019050620004f6565b8381111562000523576000848401525b50505050565b6000620005406200053a84620004bd565b6200049e565b9050828152602081018484840111156200055f576200055e62000423565b5b6200056c848285620004f3565b509392505050565b600082601f8301126200058c576200058b6200041e565b5b81516200059e84826020860162000529565b91505092915050565b600060208284031215620005c057620005bf62000414565b5b600082015167ffffffffffffffff811115620005e157620005e062000419565b5b620005ef8482850162000574565b91505092915050565b7f4e487b7100000000000000000000000000000000000000000000000000000000600052602260045260246000fd5b600060028204905060018216806200064057607f821691505b60208210811415620006575762000656620005f8565b5b50919050565b600081519050919050565b600082825260208201905092915050565b600062000686826200065d565b62000692818562000668565b9350620006a4818560208601620004f3565b620006af8162000428565b840191505092915050565b60006040820190508181036000830152620006d6818562000679565b90508181036020830152620006ec818462000679565b90509392505050565b614b0380620007056000396000f3fe60806040526004361061019c5760003560e01c806370a08231116100ec578063bf40fac11161008a578063e985e9c511610064578063e985e9c514610624578063f2c298be14610661578063fb825e5f1461067d578063fe2c6198146106a85761019c565b8063bf40fac114610581578063c1880a98146105be578063c87b56dd146105e75761019c565b806395d89b41116100c657806395d89b41146104c75780639791c097146104f2578063a22cb4651461052f578063b88d4fde146105585761019c565b806370a08231146104345780638da5cb5b146104715780638f32d59b1461049c5761019c565b8063264492351161015957806342842e0e1161013357806342842e0e146103545780634622ab031461037d578063541e771d146103ba5780636352211e146103f75761019c565b806326449235146102d55780632d551432146103125780633ccfd60b1461033d5761019c565b806301ffc9a7146101a157806306fdde03146101de578063081812fc14610209578063095ea7b31461024657806311dd88451461026f57806323b872dd146102ac575b600080fd5b3480156101ad57600080fd5b506101c860048036038101906101c391906130d5565b6106e5565b6040516101d5919061311d565b60405180910390f35b3480156101ea57600080fd5b506101f36107c7565b60405161020091906131d1565b60405180910390f35b34801561021557600080fd5b50610230600480360381019061022b9190613229565b610859565b60405161023d9190613297565b60405180910390f35b34801561025257600080fd5b5061026d600480360381019061026891906132de565b61089f565b005b34801561027b57600080fd5b5061029660048036038101906102919190613383565b6109b7565b6040516102a391906131d1565b60405180910390f35b3480156102b857600080fd5b506102d360048036038101906102ce91906133d0565b610a6a565b005b3480156102e157600080fd5b506102fc60048036038101906102f79190613553565b610aca565b6040516103099190613297565b60405180910390f35b34801561031e57600080fd5b50610327610b13565b60405161033491906131d1565b60405180910390f35b34801561034957600080fd5b50610352610ba1565b005b34801561036057600080fd5b5061037b600480360381019061037691906133d0565b610c67565b005b34801561038957600080fd5b506103a4600480360381019061039f9190613229565b610c87565b6040516103b191906131d1565b60405180910390f35b3480156103c657600080fd5b506103e160048036038101906103dc9190613553565b610d27565b6040516103ee91906131d1565b60405180910390f35b34801561040357600080fd5b5061041e60048036038101906104199190613229565b610ddd565b60405161042b9190613297565b60405180910390f35b34801561044057600080fd5b5061045b6004803603810190610456919061359c565b610e8f565b60405161046891906135d8565b60405180910390f35b34801561047d57600080fd5b50610486610f47565b6040516104939190613614565b60405180910390f35b3480156104a857600080fd5b506104b1610f6d565b6040516104be919061311d565b60405180910390f35b3480156104d357600080fd5b506104dc610fc5565b6040516104e991906131d1565b60405180910390f35b3480156104fe57600080fd5b5061051960048036038101906105149190613383565b611057565b604051610526919061311d565b60405180910390f35b34801561053b57600080fd5b506105566004803603810190610551919061365b565b61110b565b005b34801561056457600080fd5b5061057f600480360381019061057a919061373c565b611121565b005b34801561058d57600080fd5b506105a860048036038101906105a39190613383565b611183565b6040516105b59190613297565b60405180910390f35b3480156105ca57600080fd5b506105e560048036038101906105e091906137bf565b6111ce565b005b3480156105f357600080fd5b5061060e60048036038101906106099190613229565b6112a9565b60405161061b91906131d1565b60405180910390f35b34801561063057600080fd5b5061064b60048036038101906106469190613840565b6113bc565b604051610658919061311d565b60405180910390f35b61067b60048036038101906106769190613383565b611450565b005b34801561068957600080fd5b5061069261190d565b60405161069f919061398c565b60405180910390f35b3480156106b457600080fd5b506106cf60048036038101906106ca9190613383565b611aeb565b6040516106dc91906135d8565b60405180910390f35b60007f80ac58cd000000000000000000000000000000000000000000000000000000007bffffffffffffffffffffffffffffffffffffffffffffffffffffffff1916827bffffffffffffffffffffffffffffffffffffffffffffffffffffffff191614806107b057507f5b5e139f000000000000000000000000000000000000000000000000000000007bffffffffffffffffffffffffffffffffffffffffffffffffffffffff1916827bffffffffffffffffffffffffffffffffffffffffffffffffffffffff1916145b806107c057506107bf82611c2d565b5b9050919050565b6060600080546107d6906139dd565b80601f0160208091040260200160405190810160405280929190818152602001828054610802906139dd565b801561084f5780601f106108245761010080835404028352916020019161084f565b820191906000526020600020905b81548152906001019060200180831161083257829003601f168201915b5050505050905090565b600061086482611c97565b6004600083815260200190815260200160002060009054906101000a900473ffffffffffffffffffffffffffffffffffffffff169050919050565b60006108aa82610ddd565b90508073ffffffffffffffffffffffffffffffffffffffff168373ffffffffffffffffffffffffffffffffffffffff16141561091b576040517f08c379a000000000000000000000000000000000000000000000000000000000815260040161091290613a81565b60405180910390fd5b8073ffffffffffffffffffffffffffffffffffffffff1661093a611ce2565b73ffffffffffffffffffffffffffffffffffffffff161480610969575061096881610963611ce2565b6113bc565b5b6109a8576040517f08c379a000000000000000000000000000000000000000000000000000000000815260040161099f90613b13565b60405180910390fd5b6109b28383611cea565b505050565b6060600c83836040516109cb929190613b63565b908152602001604051809103902080546109e4906139dd565b80601f0160208091040260200160405190810160405280929190818152602001828054610a10906139dd565b8015610a5d5780601f10610a3257610100808354040283529160200191610a5d565b820191906000526020600020905b815481529060010190602001808311610a4057829003601f168201915b5050505050905092915050565b610a7b610a75611ce2565b82611da3565b610aba576040517f08c379a0000000000000000000000000000000000000000000000000000000008152600401610ab190613bee565b60405180910390fd5b610ac5838383611e38565b505050565b600b818051602081018201805184825260208301602085012081835280955050505050506000915054906101000a900473ffffffffffffffffffffffffffffffffffffffff1681565b60088054610b20906139dd565b80601f0160208091040260200160405190810160405280929190818152602001828054610b4c906139dd565b8015610b995780601f10610b6e57610100808354040283529160200191610b99565b820191906000526020600020905b815481529060010190602001808311610b7c57829003601f168201915b505050505081565b610ba9610f6d565b610bb257600080fd5b600047905060003373ffffffffffffffffffffffffffffffffffffffff1682604051610bdd90613c3f565b60006040518083038185875af1925050503d8060008114610c1a576040519150601f19603f3d011682016040523d82523d6000602084013e610c1f565b606091505b5050905080610c63576040517f08c379a0000000000000000000000000000000000000000000000000000000008152600401610c5a90613ca0565b60405180910390fd5b5050565b610c8283838360405180602001604052806000815250611121565b505050565b600d6020528060005260406000206000915090508054610ca6906139dd565b80601f0160208091040260200160405190810160405280929190818152602001828054610cd2906139dd565b8015610d1f5780601f10610cf457610100808354040283529160200191610d1f565b820191906000526020600020905b815481529060010190602001808311610d0257829003601f168201915b505050505081565b600c818051602081018201805184825260208301602085012081835280955050505050506000915090508054610d5c906139dd565b80601f0160208091040260200160405190810160405280929190818152602001828054610d88906139dd565b8015610dd55780601f10610daa57610100808354040283529160200191610dd5565b820191906000526020600020905b815481529060010190602001808311610db857829003601f168201915b505050505081565b6000806002600084815260200190815260200160002060009054906101000a900473ffffffffffffffffffffffffffffffffffffffff169050600073ffffffffffffffffffffffffffffffffffffffff168173ffffffffffffffffffffffffffffffffffffffff161415610e86576040517f08c379a0000000000000000000000000000000000000000000000000000000008152600401610e7d90613d0c565b60405180910390fd5b80915050919050565b60008073ffffffffffffffffffffffffffffffffffffffff168273ffffffffffffffffffffffffffffffffffffffff161415610f00576040517f08c379a0000000000000000000000000000000000000000000000000000000008152600401610ef790613d9e565b60405180910390fd5b600360008373ffffffffffffffffffffffffffffffffffffffff1673ffffffffffffffffffffffffffffffffffffffff168152602001908152602001600020549050919050565b600e60009054906101000a900473ffffffffffffffffffffffffffffffffffffffff1681565b6000600e60009054906101000a900473ffffffffffffffffffffffffffffffffffffffff1673ffffffffffffffffffffffffffffffffffffffff163373ffffffffffffffffffffffffffffffffffffffff1614905090565b606060018054610fd4906139dd565b80601f0160208091040260200160405190810160405280929190818152602001828054611000906139dd565b801561104d5780601f106110225761010080835404028352916020019161104d565b820191906000526020600020905b81548152906001019060200180831161103057829003601f168201915b5050505050905090565b600060036110a884848080601f016020809104026020016040519081016040528093929190818152602001838380828437600081840152601f19601f8201169050808301925050505050505061209f565b101580156111035750600a61110084848080601f016020809104026020016040519081016040528093929190818152602001838380828437600081840152601f19601f8201169050808301925050505050505061209f565b11155b905092915050565b61111d611116611ce2565b8383612254565b5050565b61113261112c611ce2565b83611da3565b611171576040517f08c379a000000000000000000000000000000000000000000000000000000000815260040161116890613bee565b60405180910390fd5b61117d848484846123c1565b50505050565b6000600b8383604051611197929190613b63565b908152602001604051809103902060009054906101000a900473ffffffffffffffffffffffffffffffffffffffff16905092915050565b600b84846040516111e0929190613b63565b908152602001604051809103902060009054906101000a900473ffffffffffffffffffffffffffffffffffffffff1673ffffffffffffffffffffffffffffffffffffffff163373ffffffffffffffffffffffffffffffffffffffff1614611273576040517fd7a2ae6a00000000000000000000000000000000000000000000000000000000815260040160405180910390fd5b8181600c8686604051611287929190613b63565b908152602001604051809103902091906112a2929190612f40565b5050505050565b60606112b482611c97565b60006006600084815260200190815260200160002080546112d4906139dd565b80601f0160208091040260200160405190810160405280929190818152602001828054611300906139dd565b801561134d5780601f106113225761010080835404028352916020019161134d565b820191906000526020600020905b81548152906001019060200180831161133057829003601f168201915b50505050509050600061135e61241d565b90506000815114156113745781925050506113b7565b6000825111156113a9578082604051602001611391929190613def565b604051602081830303815290604052925050506113b7565b6113b284612434565b925050505b919050565b6000600560008473ffffffffffffffffffffffffffffffffffffffff1673ffffffffffffffffffffffffffffffffffffffff16815260200190815260200160002060008373ffffffffffffffffffffffffffffffffffffffff1673ffffffffffffffffffffffffffffffffffffffff16815260200190815260200160002060009054906101000a900460ff16905092915050565b600073ffffffffffffffffffffffffffffffffffffffff16600b838360405161147a929190613b63565b908152602001604051809103902060009054906101000a900473ffffffffffffffffffffffffffffffffffffffff1673ffffffffffffffffffffffffffffffffffffffff16146114f6576040517f3a81d6fc00000000000000000000000000000000000000000000000000000000815260040160405180910390fd5b6115008282611057565b6115435781816040517f7f19f48d00000000000000000000000000000000000000000000000000000000815260040161153a929190613e40565b60405180910390fd5b600061154f8383611aeb565b905080341015611594576040517f08c379a000000000000000000000000000000000000000000000000000000000815260040161158b90613eb0565b60405180910390fd5b6000838360086040516020016115ac93929190613fb0565b60405160208183030381529060405290506000600982600a6040516020016115d693929190613fe1565b604051602081830303815290604052905060006115f3600761249c565b9050600061164487878080601f016020809104026020016040519081016040528093929190818152602001838380828437600081840152601f19601f8201169050808301925050505050505061209f565b90506000611651826124aa565b9050611745604051806060016040528060318152602001614a9d6031913989898080601f016020809104026020016040519081016040528093929190818152602001838380828437600081840152601f19601f82011690508083019250505050505050600880546116c1906139dd565b80601f01602080910402602001604051908101604052809291908181526020018280546116ed906139dd565b801561173a5780601f1061170f5761010080835404028352916020019161173a565b820191906000526020600020905b81548152906001019060200180831161171d57829003601f168201915b50505050508661260b565b600061177b86611754876126ad565b846040516020016117679392919061418e565b6040516020818303038152906040526126ad565b90506000816040516020016117909190614237565b60405160208183030381529060405290506117c26040518060600160405280603981526020016149eb60399139612845565b6118016040518060400160405280600e81526020017f46696e616c20746f6b656e55524900000000000000000000000000000000000081525082611b91565b611822604051806060016040528060398152602001614a2460399139612845565b61182c33866128de565b61183685826128fc565b33600b8b8b604051611849929190613b63565b908152602001604051809103902060006101000a81548173ffffffffffffffffffffffffffffffffffffffff021916908373ffffffffffffffffffffffffffffffffffffffff1602179055506118d46040518060400160405280601b81526020017f2573206861732072656769737465726564206120646f6d61696e21000000000081525033612970565b8989600d600088815260200190815260200160002091906118f6929190612f40565b506119016007612a0c565b50505050505050505050565b606061194d6040518060400160405280601f81526020017f47657474696e6720616c6c206e616d65732066726f6d20636f6e747261637400815250612845565b6000611959600761249c565b67ffffffffffffffff81111561197257611971613428565b5b6040519080825280602002602001820160405280156119a557816020015b60608152602001906001900390816119905790505b50905060005b6119b5600761249c565b811015611ae357600d600082815260200190815260200160002080546119da906139dd565b80601f0160208091040260200160405190810160405280929190818152602001828054611a06906139dd565b8015611a535780601f10611a2857610100808354040283529160200191611a53565b820191906000526020600020905b815481529060010190602001808311611a3657829003601f168201915b5050505050828281518110611a6b57611a6a614259565b5b6020026020010181905250611ad06040518060400160405280601781526020017f4e616d6520666f7220746f6b656e20256420697320257300000000000000000081525082848481518110611ac357611ac2614259565b5b6020026020010151612a22565b8080611adb906142b7565b9150506119ab565b508091505090565b600080611b3b84848080601f016020809104026020016040519081016040528093929190818152602001838380828437600081840152601f19601f8201169050808301925050505050505061209f565b905060008111611b4a57600080fd5b6003811415611b64576706f05b59d3b20000915050611b8b565b6004811415611b7e57670429d069189e0000915050611b8b565b67016345785d8a00009150505b92915050565b611c298282604051602401611ba7929190614300565b6040516020818303038152906040527f4b5c4277000000000000000000000000000000000000000000000000000000007bffffffffffffffffffffffffffffffffffffffffffffffffffffffff19166020820180517bffffffffffffffffffffffffffffffffffffffffffffffffffffffff8381831617835250505050612ac1565b5050565b60007f01ffc9a7000000000000000000000000000000000000000000000000000000007bffffffffffffffffffffffffffffffffffffffffffffffffffffffff1916827bffffffffffffffffffffffffffffffffffffffffffffffffffffffff1916149050919050565b611ca081612aea565b611cdf576040517f08c379a0000000000000000000000000000000000000000000000000000000008152600401611cd690613d0c565b60405180910390fd5b50565b600033905090565b816004600083815260200190815260200160002060006101000a81548173ffffffffffffffffffffffffffffffffffffffff021916908373ffffffffffffffffffffffffffffffffffffffff160217905550808273ffffffffffffffffffffffffffffffffffffffff16611d5d83610ddd565b73ffffffffffffffffffffffffffffffffffffffff167f8c5be1e5ebec7d5bd14f71427d1e84f3dd0314c0f7b2291e5b200ac8c7c3b92560405160405180910390a45050565b600080611daf83610ddd565b90508073ffffffffffffffffffffffffffffffffffffffff168473ffffffffffffffffffffffffffffffffffffffff161480611df15750611df081856113bc565b5b80611e2f57508373ffffffffffffffffffffffffffffffffffffffff16611e1784610859565b73ffffffffffffffffffffffffffffffffffffffff16145b91505092915050565b8273ffffffffffffffffffffffffffffffffffffffff16611e5882610ddd565b73ffffffffffffffffffffffffffffffffffffffff1614611eae576040517f08c379a0000000000000000000000000000000000000000000000000000000008152600401611ea5906143a9565b60405180910390fd5b600073ffffffffffffffffffffffffffffffffffffffff168273ffffffffffffffffffffffffffffffffffffffff161415611f1e576040517f08c379a0000000000000000000000000000000000000000000000000000000008152600401611f159061443b565b60405180910390fd5b611f29838383612b56565b611f34600082611cea565b6001600360008573ffffffffffffffffffffffffffffffffffffffff1673ffffffffffffffffffffffffffffffffffffffff1681526020019081526020016000206000828254611f84919061445b565b925050819055506001600360008473ffffffffffffffffffffffffffffffffffffffff1673ffffffffffffffffffffffffffffffffffffffff1681526020019081526020016000206000828254611fdb919061448f565b92505081905550816002600083815260200190815260200160002060006101000a81548173ffffffffffffffffffffffffffffffffffffffff021916908373ffffffffffffffffffffffffffffffffffffffff160217905550808273ffffffffffffffffffffffffffffffffffffffff168473ffffffffffffffffffffffffffffffffffffffff167fddf252ad1be2c89b69c2b068fc378daa952ba7f163c4a11628f55a4df523b3ef60405160405180910390a461209a838383612b5b565b505050565b60008060008084519050600092505b808210156122495760008583815181106120cb576120ca614259565b5b602001015160f81c60f81b9050608060f81b817effffffffffffffffffffffffffffffffffffffffffffffffffffffffffffff1916101561211a57600183612113919061448f565b9250612235565b60e060f81b817effffffffffffffffffffffffffffffffffffffffffffffffffffffffffffff1916101561215c57600283612155919061448f565b9250612234565b60f060f81b817effffffffffffffffffffffffffffffffffffffffffffffffffffffffffffff1916101561219e57600383612197919061448f565b9250612233565b60f8801b817effffffffffffffffffffffffffffffffffffffffffffffffffffffffffffff191610156121df576004836121d8919061448f565b9250612232565b60fc60f81b817effffffffffffffffffffffffffffffffffffffffffffffffffffffffffffff191610156122215760058361221a919061448f565b9250612231565b60068361222e919061448f565b92505b5b5b5b5b508280612241906142b7565b9350506120ae565b829350505050919050565b8173ffffffffffffffffffffffffffffffffffffffff168373ffffffffffffffffffffffffffffffffffffffff1614156122c3576040517f08c379a00000000000000000000000000000000000000000000000000000000081526004016122ba90614531565b60405180910390fd5b80600560008573ffffffffffffffffffffffffffffffffffffffff1673ffffffffffffffffffffffffffffffffffffffff16815260200190815260200160002060008473ffffffffffffffffffffffffffffffffffffffff1673ffffffffffffffffffffffffffffffffffffffff16815260200190815260200160002060006101000a81548160ff0219169083151502179055508173ffffffffffffffffffffffffffffffffffffffff168373ffffffffffffffffffffffffffffffffffffffff167f17307eab39ab6107e8899845ad3d59bd9653f200f220920489ca2b5937696c31836040516123b4919061311d565b60405180910390a3505050565b6123cc848484611e38565b6123d884848484612b60565b612417576040517f08c379a000000000000000000000000000000000000000000000000000000000815260040161240e906145c3565b60405180910390fd5b50505050565b606060405180602001604052806000815250905090565b606061243f82611c97565b600061244961241d565b905060008151116124695760405180602001604052806000815250612494565b80612473846124aa565b604051602001612484929190613def565b6040516020818303038152906040525b915050919050565b600081600001549050919050565b606060008214156124f2576040518060400160405280600181526020017f30000000000000000000000000000000000000000000000000000000000000008152509050612606565b600082905060005b6000821461252457808061250d906142b7565b915050600a8261251d9190614612565b91506124fa565b60008167ffffffffffffffff8111156125405761253f613428565b5b6040519080825280601f01601f1916602001820160405280156125725781602001600182028036833780820191505090505b5090505b600085146125ff5760018261258b919061445b565b9150600a8561259a9190614643565b60306125a6919061448f565b60f81b8183815181106125bc576125bb614259565b5b60200101907effffffffffffffffffffffffffffffffffffffffffffffffffffffffffffff1916908160001a905350600a856125f89190614612565b9450612576565b8093505050505b919050565b6126a7848484846040516024016126259493929190614674565b6040516020818303038152906040527f8eafb02b000000000000000000000000000000000000000000000000000000007bffffffffffffffffffffffffffffffffffffffffffffffffffffffff19166020820180517bffffffffffffffffffffffffffffffffffffffffffffffffffffffff8381831617835250505050612ac1565b50505050565b606060008251905060008114156126d65760405180602001604052806000815250915050612840565b600060036002836126e7919061448f565b6126f19190614612565b60046126fd91906146ce565b9050600060208261270e919061448f565b67ffffffffffffffff81111561272757612726613428565b5b6040519080825280601f01601f1916602001820160405280156127595781602001600182028036833780820191505090505b5090506000604051806060016040528060408152602001614a5d604091399050600181016020830160005b868110156127fd5760038101905062ffffff818a015116603f8160121c168401518060081b905060ff603f83600c1c1686015116810190508060081b905060ff603f8360061c1686015116810190508060081b905060ff603f831686015116810190508060e01b90508084526004840193505050612784565b506003860660018114612817576002811461282757612832565b613d3d60f01b6002830352612832565b603d60f81b60018303525b508484525050819450505050505b919050565b6128db8160405160240161285991906131d1565b6040516020818303038152906040527f41304fac000000000000000000000000000000000000000000000000000000007bffffffffffffffffffffffffffffffffffffffffffffffffffffffff19166020820180517bffffffffffffffffffffffffffffffffffffffffffffffffffffffff8381831617835250505050612ac1565b50565b6128f8828260405180602001604052806000815250612ce8565b5050565b61290582612aea565b612944576040517f08c379a000000000000000000000000000000000000000000000000000000000815260040161293b9061479a565b60405180910390fd5b8060066000848152602001908152602001600020908051906020019061296b929190612fc6565b505050565b612a0882826040516024016129869291906147ba565b6040516020818303038152906040527f319af333000000000000000000000000000000000000000000000000000000007bffffffffffffffffffffffffffffffffffffffffffffffffffffffff19166020820180517bffffffffffffffffffffffffffffffffffffffffffffffffffffffff8381831617835250505050612ac1565b5050565b6001816000016000828254019250508190555050565b612abc838383604051602401612a3a939291906147ea565b6040516020818303038152906040527f5970e089000000000000000000000000000000000000000000000000000000007bffffffffffffffffffffffffffffffffffffffffffffffffffffffff19166020820180517bffffffffffffffffffffffffffffffffffffffffffffffffffffffff8381831617835250505050612ac1565b505050565b60008151905060006a636f6e736f6c652e6c6f679050602083016000808483855afa5050505050565b60008073ffffffffffffffffffffffffffffffffffffffff166002600084815260200190815260200160002060009054906101000a900473ffffffffffffffffffffffffffffffffffffffff1673ffffffffffffffffffffffffffffffffffffffff1614159050919050565b505050565b505050565b6000612b818473ffffffffffffffffffffffffffffffffffffffff16612d43565b15612cdb578373ffffffffffffffffffffffffffffffffffffffff1663150b7a02612baa611ce2565b8786866040518563ffffffff1660e01b8152600401612bcc9493929190614884565b6020604051808303816000875af1925050508015612c0857506040513d601f19601f82011682018060405250810190612c0591906148e5565b60015b612c8b573d8060008114612c38576040519150601f19603f3d011682016040523d82523d6000602084013e612c3d565b606091505b50600081511415612c83576040517f08c379a0000000000000000000000000000000000000000000000000000000008152600401612c7a906145c3565b60405180910390fd5b805181602001fd5b63150b7a0260e01b7bffffffffffffffffffffffffffffffffffffffffffffffffffffffff1916817bffffffffffffffffffffffffffffffffffffffffffffffffffffffff191614915050612ce0565b600190505b949350505050565b612cf28383612d66565b612cff6000848484612b60565b612d3e576040517f08c379a0000000000000000000000000000000000000000000000000000000008152600401612d35906145c3565b60405180910390fd5b505050565b6000808273ffffffffffffffffffffffffffffffffffffffff163b119050919050565b600073ffffffffffffffffffffffffffffffffffffffff168273ffffffffffffffffffffffffffffffffffffffff161415612dd6576040517f08c379a0000000000000000000000000000000000000000000000000000000008152600401612dcd9061495e565b60405180910390fd5b612ddf81612aea565b15612e1f576040517f08c379a0000000000000000000000000000000000000000000000000000000008152600401612e16906149ca565b60405180910390fd5b612e2b60008383612b56565b6001600360008473ffffffffffffffffffffffffffffffffffffffff1673ffffffffffffffffffffffffffffffffffffffff1681526020019081526020016000206000828254612e7b919061448f565b92505081905550816002600083815260200190815260200160002060006101000a81548173ffffffffffffffffffffffffffffffffffffffff021916908373ffffffffffffffffffffffffffffffffffffffff160217905550808273ffffffffffffffffffffffffffffffffffffffff16600073ffffffffffffffffffffffffffffffffffffffff167fddf252ad1be2c89b69c2b068fc378daa952ba7f163c4a11628f55a4df523b3ef60405160405180910390a4612f3c60008383612b5b565b5050565b828054612f4c906139dd565b90600052602060002090601f016020900481019282612f6e5760008555612fb5565b82601f10612f8757803560ff1916838001178555612fb5565b82800160010185558215612fb5579182015b82811115612fb4578235825591602001919060010190612f99565b5b509050612fc2919061304c565b5090565b828054612fd2906139dd565b90600052602060002090601f016020900481019282612ff4576000855561303b565b82601f1061300d57805160ff191683800117855561303b565b8280016001018555821561303b579182015b8281111561303a57825182559160200191906001019061301f565b5b509050613048919061304c565b5090565b5b8082111561306557600081600090555060010161304d565b5090565b6000604051905090565b600080fd5b600080fd5b60007fffffffff0000000000000000000000000000000000000000000000000000000082169050919050565b6130b28161307d565b81146130bd57600080fd5b50565b6000813590506130cf816130a9565b92915050565b6000602082840312156130eb576130ea613073565b5b60006130f9848285016130c0565b91505092915050565b60008115159050919050565b61311781613102565b82525050565b6000602082019050613132600083018461310e565b92915050565b600081519050919050565b600082825260208201905092915050565b60005b83811015613172578082015181840152602081019050613157565b83811115613181576000848401525b50505050565b6000601f19601f8301169050919050565b60006131a382613138565b6131ad8185613143565b93506131bd818560208601613154565b6131c681613187565b840191505092915050565b600060208201905081810360008301526131eb8184613198565b905092915050565b6000819050919050565b613206816131f3565b811461321157600080fd5b50565b600081359050613223816131fd565b92915050565b60006020828403121561323f5761323e613073565b5b600061324d84828501613214565b91505092915050565b600073ffffffffffffffffffffffffffffffffffffffff82169050919050565b600061328182613256565b9050919050565b61329181613276565b82525050565b60006020820190506132ac6000830184613288565b92915050565b6132bb81613276565b81146132c657600080fd5b50565b6000813590506132d8816132b2565b92915050565b600080604083850312156132f5576132f4613073565b5b6000613303858286016132c9565b925050602061331485828601613214565b9150509250929050565b600080fd5b600080fd5b600080fd5b60008083601f8401126133435761334261331e565b5b8235905067ffffffffffffffff8111156133605761335f613323565b5b60208301915083600182028301111561337c5761337b613328565b5b9250929050565b6000806020838503121561339a57613399613073565b5b600083013567ffffffffffffffff8111156133b8576133b7613078565b5b6133c48582860161332d565b92509250509250929050565b6000806000606084860312156133e9576133e8613073565b5b60006133f7868287016132c9565b9350506020613408868287016132c9565b925050604061341986828701613214565b9150509250925092565b600080fd5b7f4e487b7100000000000000000000000000000000000000000000000000000000600052604160045260246000fd5b61346082613187565b810181811067ffffffffffffffff8211171561347f5761347e613428565b5b80604052505050565b6000613492613069565b905061349e8282613457565b919050565b600067ffffffffffffffff8211156134be576134bd613428565b5b6134c782613187565b9050602081019050919050565b82818337600083830152505050565b60006134f66134f1846134a3565b613488565b90508281526020810184848401111561351257613511613423565b5b61351d8482856134d4565b509392505050565b600082601f83011261353a5761353961331e565b5b813561354a8482602086016134e3565b91505092915050565b60006020828403121561356957613568613073565b5b600082013567ffffffffffffffff81111561358757613586613078565b5b61359384828501613525565b91505092915050565b6000602082840312156135b2576135b1613073565b5b60006135c0848285016132c9565b91505092915050565b6135d2816131f3565b82525050565b60006020820190506135ed60008301846135c9565b92915050565b60006135fe82613256565b9050919050565b61360e816135f3565b82525050565b60006020820190506136296000830184613605565b92915050565b61363881613102565b811461364357600080fd5b50565b6000813590506136558161362f565b92915050565b6000806040838503121561367257613671613073565b5b6000613680858286016132c9565b925050602061369185828601613646565b9150509250929050565b600067ffffffffffffffff8211156136b6576136b5613428565b5b6136bf82613187565b9050602081019050919050565b60006136df6136da8461369b565b613488565b9050828152602081018484840111156136fb576136fa613423565b5b6137068482856134d4565b509392505050565b600082601f8301126137235761372261331e565b5b81356137338482602086016136cc565b91505092915050565b6000806000806080858703121561375657613755613073565b5b6000613764878288016132c9565b9450506020613775878288016132c9565b935050604061378687828801613214565b925050606085013567ffffffffffffffff8111156137a7576137a6613078565b5b6137b38782880161370e565b91505092959194509250565b600080600080604085870312156137d9576137d8613073565b5b600085013567ffffffffffffffff8111156137f7576137f6613078565b5b6138038782880161332d565b9450945050602085013567ffffffffffffffff81111561382657613825613078565b5b6138328782880161332d565b925092505092959194509250565b6000806040838503121561385757613856613073565b5b6000613865858286016132c9565b9250506020613876858286016132c9565b9150509250929050565b600081519050919050565b600082825260208201905092915050565b6000819050602082019050919050565b600082825260208201905092915050565b60006138c882613138565b6138d281856138ac565b93506138e2818560208601613154565b6138eb81613187565b840191505092915050565b600061390283836138bd565b905092915050565b6000602082019050919050565b600061392282613880565b61392c818561388b565b93508360208202850161393e8561389c565b8060005b8581101561397a578484038952815161395b85826138f6565b94506139668361390a565b925060208a01995050600181019050613942565b50829750879550505050505092915050565b600060208201905081810360008301526139a68184613917565b905092915050565b7f4e487b7100000000000000000000000000000000000000000000000000000000600052602260045260246000fd5b600060028204905060018216806139f557607f821691505b60208210811415613a0957613a086139ae565b5b50919050565b7f4552433732313a20617070726f76616c20746f2063757272656e74206f776e6560008201527f7200000000000000000000000000000000000000000000000000000000000000602082015250565b6000613a6b602183613143565b9150613a7682613a0f565b604082019050919050565b60006020820190508181036000830152613a9a81613a5e565b9050919050565b7f4552433732313a20617070726f76652063616c6c6572206973206e6f7420746f60008201527f6b656e206f776e6572206e6f7220617070726f76656420666f7220616c6c0000602082015250565b6000613afd603e83613143565b9150613b0882613aa1565b604082019050919050565b60006020820190508181036000830152613b2c81613af0565b9050919050565b600081905092915050565b6000613b4a8385613b33565b9350613b578385846134d4565b82840190509392505050565b6000613b70828486613b3e565b91508190509392505050565b7f4552433732313a2063616c6c6572206973206e6f7420746f6b656e206f776e6560008201527f72206e6f7220617070726f766564000000000000000000000000000000000000602082015250565b6000613bd8602e83613143565b9150613be382613b7c565b604082019050919050565b60006020820190508181036000830152613c0781613bcb565b9050919050565b600081905092915050565b50565b6000613c29600083613c0e565b9150613c3482613c19565b600082019050919050565b6000613c4a82613c1c565b9150819050919050565b7f4661696c656420746f207769746864726177204d415449432100000000000000600082015250565b6000613c8a601983613143565b9150613c9582613c54565b602082019050919050565b60006020820190508181036000830152613cb981613c7d565b9050919050565b7f4552433732313a20696e76616c696420746f6b656e2049440000000000000000600082015250565b6000613cf6601883613143565b9150613d0182613cc0565b602082019050919050565b60006020820190508181036000830152613d2581613ce9565b9050919050565b7f4552433732313a2061646472657373207a65726f206973206e6f74206120766160008201527f6c6964206f776e65720000000000000000000000000000000000000000000000602082015250565b6000613d88602983613143565b9150613d9382613d2c565b604082019050919050565b60006020820190508181036000830152613db781613d7b565b9050919050565b6000613dc982613138565b613dd38185613b33565b9350613de3818560208601613154565b80840191505092915050565b6000613dfb8285613dbe565b9150613e078284613dbe565b91508190509392505050565b6000613e1f8385613143565b9350613e2c8385846134d4565b613e3583613187565b840190509392505050565b60006020820190508181036000830152613e5b818486613e13565b90509392505050565b7f4e6f74207061696420656e6f75676820616d6f756e7421210000000000000000600082015250565b6000613e9a601883613143565b9150613ea582613e64565b602082019050919050565b60006020820190508181036000830152613ec981613e8d565b9050919050565b7f2e00000000000000000000000000000000000000000000000000000000000000600082015250565b6000613f06600183613b33565b9150613f1182613ed0565b600182019050919050565b60008190508160005260206000209050919050565b60008154613f3e816139dd565b613f488186613b33565b94506001821660008114613f635760018114613f7457613fa7565b60ff19831686528186019350613fa7565b613f7d85613f1c565b60005b83811015613f9f57815481890152600182019150602081019050613f80565b838801955050505b50505092915050565b6000613fbd828587613b3e565b9150613fc882613ef9565b9150613fd48284613f31565b9150819050949350505050565b6000613fed8286613f31565b9150613ff98285613dbe565b91506140058284613f31565b9150819050949350505050565b7f7b226e616d65223a220000000000000000000000000000000000000000000000600082015250565b6000614048600983613b33565b915061405382614012565b600982019050919050565b7f222c226465736372697074696f6e223a20224120646f6d61696e206f6e20746860008201527f652056696265206e616d652073657276696365222c22696d616765223a22646160208201527f74613a696d6167652f7376672b786d6c3b6261736536342c0000000000000000604082015250565b60006140e0605883613b33565b91506140eb8261405e565b605882019050919050565b7f222c226c656e677468223a220000000000000000000000000000000000000000600082015250565b600061412c600c83613b33565b9150614137826140f6565b600c82019050919050565b7f227d000000000000000000000000000000000000000000000000000000000000600082015250565b6000614178600283613b33565b915061418382614142565b600282019050919050565b60006141998261403b565b91506141a58286613dbe565b91506141b0826140d3565b91506141bc8285613dbe565b91506141c78261411f565b91506141d38284613dbe565b91506141de8261416b565b9150819050949350505050565b7f646174613a6170706c69636174696f6e2f6a736f6e3b6261736536342c000000600082015250565b6000614221601d83613b33565b915061422c826141eb565b601d82019050919050565b600061424282614214565b915061424e8284613dbe565b915081905092915050565b7f4e487b7100000000000000000000000000000000000000000000000000000000600052603260045260246000fd5b7f4e487b7100000000000000000000000000000000000000000000000000000000600052601160045260246000fd5b60006142c2826131f3565b91507fffffffffffffffffffffffffffffffffffffffffffffffffffffffffffffffff8214156142f5576142f4614288565b5b600182019050919050565b6000604082019050818103600083015261431a8185613198565b9050818103602083015261432e8184613198565b90509392505050565b7f4552433732313a207472616e736665722066726f6d20696e636f72726563742060008201527f6f776e6572000000000000000000000000000000000000000000000000000000602082015250565b6000614393602583613143565b915061439e82614337565b604082019050919050565b600060208201905081810360008301526143c281614386565b9050919050565b7f4552433732313a207472616e7366657220746f20746865207a65726f2061646460008201527f7265737300000000000000000000000000000000000000000000000000000000602082015250565b6000614425602483613143565b9150614430826143c9565b604082019050919050565b6000602082019050818103600083015261445481614418565b9050919050565b6000614466826131f3565b9150614471836131f3565b92508282101561448457614483614288565b5b828203905092915050565b600061449a826131f3565b91506144a5836131f3565b9250827fffffffffffffffffffffffffffffffffffffffffffffffffffffffffffffffff038211156144da576144d9614288565b5b828201905092915050565b7f4552433732313a20617070726f766520746f2063616c6c657200000000000000600082015250565b600061451b601983613143565b9150614526826144e5565b602082019050919050565b6000602082019050818103600083015261454a8161450e565b9050919050565b7f4552433732313a207472616e7366657220746f206e6f6e20455243373231526560008201527f63656976657220696d706c656d656e7465720000000000000000000000000000602082015250565b60006145ad603283613143565b91506145b882614551565b604082019050919050565b600060208201905081810360008301526145dc816145a0565b9050919050565b7f4e487b7100000000000000000000000000000000000000000000000000000000600052601260045260246000fd5b600061461d826131f3565b9150614628836131f3565b925082614638576146376145e3565b5b828204905092915050565b600061464e826131f3565b9150614659836131f3565b925082614669576146686145e3565b5b828206905092915050565b6000608082019050818103600083015261468e8187613198565b905081810360208301526146a28186613198565b905081810360408301526146b68185613198565b90506146c560608301846135c9565b95945050505050565b60006146d9826131f3565b91506146e4836131f3565b9250817fffffffffffffffffffffffffffffffffffffffffffffffffffffffffffffffff048311821515161561471d5761471c614288565b5b828202905092915050565b7f45524337323155524953746f726167653a2055524920736574206f66206e6f6e60008201527f6578697374656e7420746f6b656e000000000000000000000000000000000000602082015250565b6000614784602e83613143565b915061478f82614728565b604082019050919050565b600060208201905081810360008301526147b381614777565b9050919050565b600060408201905081810360008301526147d48185613198565b90506147e36020830184613288565b9392505050565b600060608201905081810360008301526148048186613198565b905061481360208301856135c9565b81810360408301526148258184613198565b9050949350505050565b600081519050919050565b600082825260208201905092915050565b60006148568261482f565b614860818561483a565b9350614870818560208601613154565b61487981613187565b840191505092915050565b60006080820190506148996000830187613288565b6148a66020830186613288565b6148b360408301856135c9565b81810360608301526148c5818461484b565b905095945050505050565b6000815190506148df816130a9565b92915050565b6000602082840312156148fb576148fa613073565b5b6000614909848285016148d0565b91505092915050565b7f4552433732313a206d696e7420746f20746865207a65726f2061646472657373600082015250565b6000614948602083613143565b915061495382614912565b602082019050919050565b600060208201905081810360008301526149778161493b565b9050919050565b7f4552433732313a20746f6b656e20616c7265616479206d696e74656400000000600082015250565b60006149b4601c83613143565b91506149bf8261497e565b602082019050919050565b600060208201905081810360008301526149e3816149a7565b905091905056fe0a2d2d2d2d2d2d2d2d2d2d2d2d2d2d2d2d2d2d2d2d2d2d2d2d2d2d2d2d2d2d2d2d2d2d2d2d2d2d2d2d2d2d2d2d2d2d2d2d2d2d2d2d2d2d2d2d2d2d2d2d2d2d2d2d2d2d2d2d2d2d2d2d2d2d2d2d2d2d2d2d2d2d2d2d2d2d2d2d2d2d2d2d2d2d2d2d2d2d2d2d2d2d2d2d2d2d2d2d2d2d2d2d0a4142434445464748494a4b4c4d4e4f505152535455565758595a6162636465666768696a6b6c6d6e6f707172737475767778797a303132333435363738392b2f5265676573746572696e672025732e2573206f6e2074686520636f6e7472616374207769746820746f6b656e4964202564a2646970667358221220acdcb2e2d4056d80cb4ed6669a61016edff9c5a6fc34860419d511d6dca30e3f64736f6c634300080a00333c73766720786d6c6e733d22687474703a2f2f7777772e77332e6f72672f323030302f737667222077696474683d2232373022206865696768743d22323730222066696c6c3d226e6f6e65223e3c706174682066696c6c3d2275726c282342292220643d224d302030683237307632373048307a222f3e3c646566733e3c66696c7465722069643d22412220636f6c6f722d696e746572706f6c6174696f6e2d66696c746572733d2273524742222066696c746572556e6974733d227573657253706163654f6e55736522206865696768743d22323730222077696474683d22323730223e3c666544726f70536861646f772064783d2230222064793d22312220737464446576696174696f6e3d22322220666c6f6f642d6f7061636974793d222e323235222077696474683d223230302522206865696768743d2232303025222f3e3c2f66696c7465723e3c2f646566733e3c7061746820643d224d37322e3836332034322e393439632d2e3636382d2e3338372d312e3432362d2e35392d322e3139372d2e3539732d312e3532392e3230342d322e3139372e35396c2d31302e30383120362e3033322d362e383520332e3933342d31302e30383120362e303332632d2e3636382e3338372d312e3432362e35392d322e3139372e3539732d312e3532392d2e3230342d322e3139372d2e35396c2d382e3031332d342e37323161342e353220342e35322030203020312d312e3538392d312e363136632d2e3338342d2e3636352d2e3539342d312e3431382d2e3630382d322e313837762d392e3331632d2e3031332d2e3737352e3138352d312e3533382e3537322d322e32303861342e323520342e323520302030203120312e3632352d312e3539356c372e3838342d342e3539632e3636382d2e33383720312e3432362d2e353920322e3139372d2e353973312e3532392e32303420322e3139372e35396c372e38383420342e353961342e353220342e353220302030203120312e35383920312e363136632e3338342e3636352e35393420312e3431382e36303820322e31383776362e3033326c362e38352d342e303635762d362e303332632e3031332d2e3737352d2e3138352d312e3533382d2e3537322d322e32303861342e323520342e32352030203020302d312e3632352d312e3539354c34312e3435362032342e3539632d2e3636382d2e3338372d312e3432362d2e35392d322e3139372d2e3539732d312e3532392e3230342d322e3139372e35396c2d31342e38363420382e36353561342e323520342e32352030203020302d312e36323520312e353935632d2e3338372e36372d2e35383520312e3433342d2e35373220322e3230387631372e343431632d2e3031332e3737352e31383520312e3533382e35373220322e32303861342e323520342e323520302030203020312e36323520312e3539356c31342e38363420382e363535632e3636382e33383720312e3432362e353920322e3139372e353973312e3532392d2e32303420322e3139372d2e35396c31302e3038312d352e39303120362e38352d342e3036352031302e3038312d352e393031632e3636382d2e33383720312e3432362d2e353920322e3139372d2e353973312e3532392e32303420322e3139372e35396c372e38383420342e353961342e353220342e353220302030203120312e35383920312e363136632e3338342e3636352e35393420312e3431382e36303820322e31383776392e333131632e3031332e3737352d2e31383520312e3533382d2e35373220322e32303861342e323520342e32352030203020312d312e36323520312e3539356c2d372e38383420342e373231632d2e3636382e3338372d312e3432362e35392d322e3139372e3539732d312e3532392d2e3230342d322e3139372d2e35396c2d372e3838342d342e353961342e353220342e35322030203020312d312e3538392d312e363136632d2e3338352d2e3636352d2e3539342d312e3431382d2e3630382d322e313837762d362e3033326c2d362e383520342e30363576362e303332632d2e3031332e3737352e31383520312e3533382e35373220322e32303861342e323520342e323520302030203020312e36323520312e3539356c31342e38363420382e363535632e3636382e33383720312e3432362e353920322e3139372e353973312e3532392d2e32303420322e3139372d2e35396c31342e3836342d382e363535632e3635372d2e33393420312e3230342d2e393520312e3538392d312e363136732e3539342d312e3431382e3630392d322e3138375635352e353338632e3031332d2e3737352d2e3138352d312e3533382d2e3537322d322e32303861342e323520342e32352030203020302d312e3632352d312e3539356c2d31342e3939332d382e3738367a222066696c6c3d2223666666222f3e3c646566733e3c6c696e6561724772616469656e742069643d2242222078313d2230222079313d2230222078323d22323730222079323d2232373022206772616469656e74556e6974733d227573657253706163654f6e557365223e3c73746f702073746f702d636f6c6f723d2223636235656565222f3e3c73746f70206f66667365743d2231222073746f702d636f6c6f723d2223306364376534222073746f702d6f7061636974793d222e3939222f3e3c2f6c696e6561724772616469656e743e3c2f646566733e3c7465787420783d2233322e352220793d223233312220666f6e742d73697a653d223237222066696c6c3d2223666666222066696c7465723d2275726c282341292220666f6e742d66616d696c793d22506c7573204a616b617274612053616e732c44656a6156752053616e732c4e6f746f20436f6c6f7220456d6f6a692c4170706c6520436f6c6f7220456d6f6a692c73616e732d73657269662220666f6e742d7765696768743d22626f6c64223e",
    "linkReferences": {},
    "deployedLinkReferences": {}
}